{
  "contractName": "VideoInfo",
  "abi": [
    {
      "inputs": [],
      "stateMutability": "nonpayable",
      "type": "constructor"
    },
    {
      "anonymous": false,
      "inputs": [
        {
          "indexed": false,
          "internalType": "uint256",
          "name": "id",
          "type": "uint256"
        },
        {
          "indexed": false,
          "internalType": "string",
          "name": "hash",
          "type": "string"
        },
        {
          "indexed": false,
          "internalType": "string",
          "name": "title",
          "type": "string"
        },
        {
          "indexed": false,
          "internalType": "address",
          "name": "author",
          "type": "address"
        }
      ],
      "name": "VideoUploaded",
      "type": "event"
    },
    {
      "inputs": [],
      "name": "name",
      "outputs": [
        {
          "internalType": "string",
          "name": "",
          "type": "string"
        }
      ],
      "stateMutability": "view",
      "type": "function",
      "constant": true
    },
    {
      "inputs": [],
      "name": "videoCount",
      "outputs": [
        {
          "internalType": "uint256",
          "name": "",
          "type": "uint256"
        }
      ],
      "stateMutability": "view",
      "type": "function",
      "constant": true
    },
    {
      "inputs": [
        {
          "internalType": "uint256",
          "name": "",
          "type": "uint256"
        }
      ],
      "name": "videos",
      "outputs": [
        {
          "internalType": "uint256",
          "name": "id",
          "type": "uint256"
        },
        {
          "internalType": "string",
          "name": "hash",
          "type": "string"
        },
        {
          "internalType": "string",
          "name": "title",
          "type": "string"
        },
        {
          "internalType": "address",
          "name": "author",
          "type": "address"
        }
      ],
      "stateMutability": "view",
      "type": "function",
      "constant": true
    },
    {
      "inputs": [
        {
          "internalType": "string",
          "name": "_videoHash",
          "type": "string"
        },
        {
          "internalType": "string",
          "name": "_title",
          "type": "string"
        }
      ],
      "name": "uploadVideo",
      "outputs": [],
      "stateMutability": "nonpayable",
      "type": "function"
    }
  ],
  "bytecode": "0x608060405234801561001057600080fd5b506040518060400160405280600381526020017f524c5000000000000000000000000000000000000000000000000000000000008152506001908051906020019061005c929190610069565b506000808190555061016d565b8280546100759061010c565b90600052602060002090601f01602090048101928261009757600085556100de565b82601f106100b057805160ff19168380011785556100de565b828001600101855582156100de579182015b828111156100dd5782518255916020019190600101906100c2565b5b5090506100eb91906100ef565b5090565b5b808211156101085760008160009055506001016100f0565b5090565b6000600282049050600182168061012457607f821691505b602082108114156101385761013761013e565b5b50919050565b7f4e487b7100000000000000000000000000000000000000000000000000000000600052602260045260246000fd5b610b1a8061017c6000396000f3fe608060405234801561001057600080fd5b506004361061004c5760003560e01c806306fdde03146100515780638a5447c51461006f578063c61b5f4c1461008b578063e6821bf5146100a9575b600080fd5b6100596100dc565b60405161006691906107c9565b60405180910390f35b6100896004803603810190610084919061061d565b61016a565b005b610093610397565b6040516100a0919061084b565b60405180910390f35b6100c360048036038101906100be9190610689565b61039d565b6040516100d39493929190610866565b60405180910390f35b600180546100e9906109b4565b80601f0160208091040260200160405190810160405280929190818152602001828054610115906109b4565b80156101625780601f1061013757610100808354040283529160200191610162565b820191906000526020600020905b81548152906001019060200180831161014557829003601f168201915b505050505081565b60008251116101ae576040517f08c379a00000000000000000000000000000000000000000000000000000000081526004016101a59061082b565b60405180910390fd5b60008151116101f2576040517f08c379a00000000000000000000000000000000000000000000000000000000081526004016101e99061080b565b60405180910390fd5b600073ffffffffffffffffffffffffffffffffffffffff163373ffffffffffffffffffffffffffffffffffffffff161415610262576040517f08c379a0000000000000000000000000000000000000000000000000000000008152600401610259906107eb565b60405180910390fd5b600080815480929190610274906109e6565b9190505550604051806080016040528060005481526020018381526020018281526020013373ffffffffffffffffffffffffffffffffffffffff1681525060026000805481526020019081526020016000206000820151816000015560208201518160010190805190602001906102ec9291906104fd565b5060408201518160020190805190602001906103099291906104fd565b5060608201518160030160006101000a81548173ffffffffffffffffffffffffffffffffffffffff021916908373ffffffffffffffffffffffffffffffffffffffff1602179055509050507f2c44b862f4b4e08a26a765f9499900759a9ec95360a6f174d53163bd5d367f6760005483833360405161038b9493929190610866565b60405180910390a15050565b60005481565b60026020528060005260406000206000915090508060000154908060010180546103c6906109b4565b80601f01602080910402602001604051908101604052809291908181526020018280546103f2906109b4565b801561043f5780601f106104145761010080835404028352916020019161043f565b820191906000526020600020905b81548152906001019060200180831161042257829003601f168201915b505050505090806002018054610454906109b4565b80601f0160208091040260200160405190810160405280929190818152602001828054610480906109b4565b80156104cd5780601f106104a2576101008083540402835291602001916104cd565b820191906000526020600020905b8154815290600101906020018083116104b057829003601f168201915b5050505050908060030160009054906101000a900473ffffffffffffffffffffffffffffffffffffffff16905084565b828054610509906109b4565b90600052602060002090601f01602090048101928261052b5760008555610572565b82601f1061054457805160ff1916838001178555610572565b82800160010185558215610572579182015b82811115610571578251825591602001919060010190610556565b5b50905061057f9190610583565b5090565b5b8082111561059c576000816000905550600101610584565b5090565b60006105b36105ae846108ea565b6108b9565b9050828152602081018484840111156105cb57600080fd5b6105d6848285610972565b509392505050565b600082601f8301126105ef57600080fd5b81356105ff8482602086016105a0565b91505092915050565b60008135905061061781610acd565b92915050565b6000806040838503121561063057600080fd5b600083013567ffffffffffffffff81111561064a57600080fd5b610656858286016105de565b925050602083013567ffffffffffffffff81111561067357600080fd5b61067f858286016105de565b9150509250929050565b60006020828403121561069b57600080fd5b60006106a984828501610608565b91505092915050565b6106bb81610936565b82525050565b60006106cc8261091a565b6106d68185610925565b93506106e6818560208601610981565b6106ef81610abc565b840191505092915050565b6000610707601883610925565b91507f496e76616c69642075706c6f61646572206164647265737300000000000000006000830152602082019050919050565b6000610747601383610925565b91507f496e76616c696420766964656f207469746c65000000000000000000000000006000830152602082019050919050565b6000610787601283610925565b91507f496e76616c696420766964656f206861736800000000000000000000000000006000830152602082019050919050565b6107c381610968565b82525050565b600060208201905081810360008301526107e381846106c1565b905092915050565b60006020820190508181036000830152610804816106fa565b9050919050565b600060208201905081810360008301526108248161073a565b9050919050565b600060208201905081810360008301526108448161077a565b9050919050565b600060208201905061086060008301846107ba565b92915050565b600060808201905061087b60008301876107ba565b818103602083015261088d81866106c1565b905081810360408301526108a181856106c1565b90506108b060608301846106b2565b95945050505050565b6000604051905081810181811067ffffffffffffffff821117156108e0576108df610a8d565b5b8060405250919050565b600067ffffffffffffffff82111561090557610904610a8d565b5b601f19601f8301169050602081019050919050565b600081519050919050565b600082825260208201905092915050565b600061094182610948565b9050919050565b600073ffffffffffffffffffffffffffffffffffffffff82169050919050565b6000819050919050565b82818337600083830152505050565b60005b8381101561099f578082015181840152602081019050610984565b838111156109ae576000848401525b50505050565b600060028204905060018216806109cc57607f821691505b602082108114156109e0576109df610a5e565b5b50919050565b60006109f182610968565b91507fffffffffffffffffffffffffffffffffffffffffffffffffffffffffffffffff821415610a2457610a23610a2f565b5b600182019050919050565b7f4e487b7100000000000000000000000000000000000000000000000000000000600052601160045260246000fd5b7f4e487b7100000000000000000000000000000000000000000000000000000000600052602260045260246000fd5b7f4e487b7100000000000000000000000000000000000000000000000000000000600052604160045260246000fd5b6000601f19601f8301169050919050565b610ad681610968565b8114610ae157600080fd5b5056fea2646970667358221220bf3a4d991808d7013e346b0d774d2cd7328153f25073c3e143706ec17304295c64736f6c63430008000033",
  "immutableReferences": {},
  "source": "pragma solidity ^0.8.0;\n\ncontract VideoInfo {\n  uint public videoCount; //   \n  string public name; //    \n  mapping(uint => Video) public videos;\n//Video  . Video   ID, , ,   \n\n//video \n  struct Video {\n    uint id;\n    string hash;\n    string title;\n    address author;\n  }\n\n//   \n  event VideoUploaded(\n    uint id,\n    string hash,\n    string title,\n    address author\n  );\n\n// ,   \n  constructor() {\n    name=\"RLP\";\n    videoCount=0;\n  }\n\n//uploadvideo()   \n  function uploadVideo(string memory _videoHash, string memory _title) public {\n\t// ,      \n// Make sure the video hash exists\n    require(bytes(_videoHash).length > 0,\"Invalid video hash\");\n    // Make sure video title exists\n    require(bytes(_title).length > 0,\"Invalid video title\");\n    // Make sure uploader address exists\n    require(msg.sender!=address(0),\"Invalid uploader address\");\n\n    // Increment video id\n    videoCount ++;\n\n    // Add video to the contract\n    videos[videoCount] = Video(videoCount, _videoHash, _title, msg.sender);\n    // Trigger an event\n//   \n    emit VideoUploaded(videoCount, _videoHash, _title, msg.sender);\n  }\n}\n",
  "sourcePath": "/Users/parkchaewon/lecture_eth/lottery-smart-contract/contracts/VideoInfo.sol",
  "compiler": {
    "name": "solc",
    "version": "0.8.0+commit.c7dfd78e.Emscripten.clang"
  },
  "schemaVersion": "3.4.14",
  "updatedAt": "2023-05-26T00:18:08.166Z",
  "networkType": "ethereum",
  "devdoc": {
    "kind": "dev",
    "methods": {},
    "version": 1
  },
  "userdoc": {
    "kind": "user",
    "methods": {},
    "version": 1
  }
}